:020000040000fa
:040008008a0f00005b
:020000040000fa
:04000c00080f0000d9
:020000040000fa
:040010004a0f000093
:020000040000fa
:04001400280f0000b1
:020000040000fa
:040018006a0f00006b
:020000040000fa
:04001c008a0f000047
:020000040000fa
:040020008a0f000043
:020000040000fa
:040024008a0f00003f
:020000040000fa
:040028008a0f00003b
:020000040000fa
:04002c008a0f000037
:020000040000fa
:040030008a0f000033
:020000040000fa
:040034008a0f00002f
:020000040000fa
:040038008a0f00002b
:020000040000fa
:04003c008a0f000027
:020000040000fa
:040040008a0f000023
:020000040000fa
:040044008a0f00001f
:020000040000fa
:040048008a0f00001b
:020000040000fa
:04004c008a0f000017
:020000040000fa
:040050008a0f000013
:020000040000fa
:040054008a0f00000f
:020000040000fa
:040058008a0f00000b
:020000040000fa
:04005c008a0f000007
:020000040000fa
:040060008a0f000003
:020000040000fa
:040064008a0f0000ff
:020000040000fa
:040068008a0f0000fb
:020000040000fa
:04006c008a0f0000f7
:020000040000fa
:040070008a0f0000f3
:020000040000fa
:040074008a0f0000ef
:020000040000fa
:040078008a0f0000eb
:020000040000fa
:04007c008a0f0000e7
:020000040000fa
:040080008a0f0000e3
:020000040000fa
:040084008a0f0000df
:020000040000fa
:040088008a0f0000db
:020000040000fa
:04008c008a0f0000d7
:020000040000fa
:040090008a0f0000d3
:020000040000fa
:040094008a0f0000cf
:020000040000fa
:040098008a0f0000cb
:020000040000fa
:04009c008a0f0000c7
:020000040000fa
:0400a0008a0f0000c3
:020000040000fa
:0400a4008a0f0000bf
:020000040000fa
:0400a8008a0f0000bb
:020000040000fa
:0400ac008a0f0000b7
:020000040000fa
:0400b0008a0f0000b3
:020000040000fa
:0400b4008a0f0000af
:020000040000fa
:0400b8008a0f0000ab
:020000040000fa
:0400bc008a0f0000a7
:020000040000fa
:0400c0008a0f0000a3
:020000040000fa
:0400c4008a0f00009f
:020000040000fa
:0400c8008a0f00009b
:020000040000fa
:0400cc008a0f000097
:020000040000fa
:0400d0008a0f000093
:020000040000fa
:0400d4008a0f00008f
:020000040000fa
:0400d8008a0f00008b
:020000040000fa
:0400dc008a0f000087
:020000040000fa
:0400e0008a0f000083
:020000040000fa
:0400e4008a0f00007f
:020000040000fa
:0400e8008a0f00007b
:020000040000fa
:0400ec008a0f000077
:020000040000fa
:0400f0008a0f000073
:020000040000fa
:0400f4008a0f00006f
:020000040000fa
:0400f8008a0f00006b
:020000040000fa
:0400fc008a0f000067
:020000040000fa
:040100008a0f000062
:020000040000fa
:040104008a0f00005e
:020000040000fa
:040108008a0f00005a
:020000040000fa
:04010c008a0f000056
:020000040000fa
:040110008a0f000052
:020000040000fa
:040114008a0f00004e
:020000040000fa
:040118008a0f00004a
:020000040000fa
:04011c008a0f000046
:020000040000fa
:040120008a0f000042
:020000040000fa
:040124008a0f00003e
:020000040000fa
:040128008a0f00003a
:020000040000fa
:04012c008a0f000036
:020000040000fa
:040130008a0f000032
:020000040000fa
:040134008a0f00002e
:020000040000fa
:040138008a0f00002a
:020000040000fa
:04013c008a0f000026
:020000040000fa
:040140008a0f000022
:020000040000fa
:040144008a0f00001e
:020000040000fa
:040148008a0f00001a
:020000040000fa
:04014c008a0f000016
:020000040000fa
:040150008a0f000012
:020000040000fa
:040154008a0f00000e
:020000040000fa
:040158008a0f00000a
:020000040000fa
:04015c008a0f000006
:020000040000fa
:040160008a0f000002
:020000040000fa
:040164008a0f0000fe
:020000040000fa
:040168008a0f0000fa
:020000040000fa
:04016c008a0f0000f6
:020000040000fa
:040170008a0f0000f2
:020000040000fa
:040174008a0f0000ee
:020000040000fa
:040178008a0f0000ea
:020000040000fa
:04017c008a0f0000e6
:020000040000fa
:040180008a0f0000e2
:020000040000fa
:040184008a0f0000de
:020000040000fa
:040188008a0f0000da
:020000040000fa
:04018c008a0f0000d6
:020000040000fa
:040190008a0f0000d2
:020000040000fa
:040194008a0f0000ce
:020000040000fa
:040198008a0f0000ca
:020000040000fa
:04019c008a0f0000c6
:020000040000fa
:0401a0008a0f0000c2
:020000040000fa
:0401a4008a0f0000be
:020000040000fa
:0401a8008a0f0000ba
:020000040000fa
:0401ac008a0f0000b6
:020000040000fa
:0401b0008a0f0000b2
:020000040000fa
:0401b4008a0f0000ae
:020000040000fa
:0401b8008a0f0000aa
:020000040000fa
:0401bc008a0f0000a6
:020000040000fa
:0401c0008a0f0000a2
:020000040000fa
:0401c4008a0f00009e
:020000040000fa
:0401c8008a0f00009a
:020000040000fa
:0401cc008a0f000096
:020000040000fa
:0401d0008a0f000092
:020000040000fa
:0401d4008a0f00008e
:020000040000fa
:0401d8008a0f00008a
:020000040000fa
:0401dc008a0f000086
:020000040000fa
:0401e0008a0f000082
:020000040000fa
:0401e4008a0f00007e
:020000040000fa
:0401e8008a0f00007a
:020000040000fa
:0401ec008a0f000076
:020000040000fa
:0401f0008a0f000072
:020000040000fa
:0401f4008a0f00006e
:020000040000fa
:0401f8008a0f00006a
:020000040000fa
:0401fc008a0f000066
:020000040000fa
:040208008a0f000059
:020000040000fa
:04020c00080f0000d7
:020000040000fa
:040210004a0f000091
:020000040000fa
:04021400280f0000af
:020000040000fa
:040218006a0f000069
:020000040000fa
:04021c008a0f000045
:020000040000fa
:040220008a0f000041
:020000040000fa
:040224008a0f00003d
:020000040000fa
:040228008a0f000039
:020000040000fa
:04022c008a0f000035
:020000040000fa
:040230008a0f000031
:020000040000fa
:040234008a0f00002d
:020000040000fa
:040238008a0f000029
:020000040000fa
:04023c008a0f000025
:020000040000fa
:040240008a0f000021
:020000040000fa
:040244008a0f00001d
:020000040000fa
:040248008a0f000019
:020000040000fa
:04024c008a0f000015
:020000040000fa
:040250008a0f000011
:020000040000fa
:040254008a0f00000d
:020000040000fa
:040258008a0f000009
:020000040000fa
:04025c008a0f000005
:020000040000fa
:040260008a0f000001
:020000040000fa
:040264008a0f0000fd
:020000040000fa
:040268008a0f0000f9
:020000040000fa
:04026c008a0f0000f5
:020000040000fa
:040270008a0f0000f1
:020000040000fa
:040274008a0f0000ed
:020000040000fa
:040278008a0f0000e9
:020000040000fa
:04027c008a0f0000e5
:020000040000fa
:040280008a0f0000e1
:020000040000fa
:040284008a0f0000dd
:020000040000fa
:040288008a0f0000d9
:020000040000fa
:04028c008a0f0000d5
:020000040000fa
:040290008a0f0000d1
:020000040000fa
:040294008a0f0000cd
:020000040000fa
:040298008a0f0000c9
:020000040000fa
:04029c008a0f0000c5
:020000040000fa
:0402a0008a0f0000c1
:020000040000fa
:0402a4008a0f0000bd
:020000040000fa
:0402a8008a0f0000b9
:020000040000fa
:0402ac008a0f0000b5
:020000040000fa
:0402b0008a0f0000b1
:020000040000fa
:0402b4008a0f0000ad
:020000040000fa
:0402b8008a0f0000a9
:020000040000fa
:0402bc008a0f0000a5
:020000040000fa
:0402c0008a0f0000a1
:020000040000fa
:0402c4008a0f00009d
:020000040000fa
:0402c8008a0f000099
:020000040000fa
:0402cc008a0f000095
:020000040000fa
:0402d0008a0f000091
:020000040000fa
:0402d4008a0f00008d
:020000040000fa
:0402d8008a0f000089
:020000040000fa
:0402dc008a0f000085
:020000040000fa
:0402e0008a0f000081
:020000040000fa
:0402e4008a0f00007d
:020000040000fa
:0402e8008a0f000079
:020000040000fa
:0402ec008a0f000075
:020000040000fa
:0402f0008a0f000071
:020000040000fa
:0402f4008a0f00006d
:020000040000fa
:0402f8008a0f000069
:020000040000fa
:0402fc008a0f000065
:020000040000fa
:040300008a0f000060
:020000040000fa
:040304008a0f00005c
:020000040000fa
:040308008a0f000058
:020000040000fa
:04030c008a0f000054
:020000040000fa
:040310008a0f000050
:020000040000fa
:040314008a0f00004c
:020000040000fa
:040318008a0f000048
:020000040000fa
:04031c008a0f000044
:020000040000fa
:040320008a0f000040
:020000040000fa
:040324008a0f00003c
:020000040000fa
:040328008a0f000038
:020000040000fa
:04032c008a0f000034
:020000040000fa
:040330008a0f000030
:020000040000fa
:040334008a0f00002c
:020000040000fa
:040338008a0f000028
:020000040000fa
:04033c008a0f000024
:020000040000fa
:040340008a0f000020
:020000040000fa
:040344008a0f00001c
:020000040000fa
:040348008a0f000018
:020000040000fa
:04034c008a0f000014
:020000040000fa
:040350008a0f000010
:020000040000fa
:040354008a0f00000c
:020000040000fa
:040358008a0f000008
:020000040000fa
:04035c008a0f000004
:020000040000fa
:040360008a0f000000
:020000040000fa
:040364008a0f0000fc
:020000040000fa
:040368008a0f0000f8
:020000040000fa
:04036c008a0f0000f4
:020000040000fa
:040370008a0f0000f0
:020000040000fa
:040374008a0f0000ec
:020000040000fa
:040378008a0f0000e8
:020000040000fa
:04037c008a0f0000e4
:020000040000fa
:040380008a0f0000e0
:020000040000fa
:040384008a0f0000dc
:020000040000fa
:040388008a0f0000d8
:020000040000fa
:04038c008a0f0000d4
:020000040000fa
:040390008a0f0000d0
:020000040000fa
:040394008a0f0000cc
:020000040000fa
:040398008a0f0000c8
:020000040000fa
:04039c008a0f0000c4
:020000040000fa
:0403a0008a0f0000c0
:020000040000fa
:0403a4008a0f0000bc
:020000040000fa
:0403a8008a0f0000b8
:020000040000fa
:0403ac008a0f0000b4
:020000040000fa
:0403b0008a0f0000b0
:020000040000fa
:0403b4008a0f0000ac
:020000040000fa
:0403b8008a0f0000a8
:020000040000fa
:0403bc008a0f0000a4
:020000040000fa
:0403c0008a0f0000a0
:020000040000fa
:0403c4008a0f00009c
:020000040000fa
:0403c8008a0f000098
:020000040000fa
:0403cc008a0f000094
:020000040000fa
:0403d0008a0f000090
:020000040000fa
:0403d4008a0f00008c
:020000040000fa
:0403d8008a0f000088
:020000040000fa
:0403dc008a0f000084
:020000040000fa
:0403e0008a0f000080
:020000040000fa
:0403e4008a0f00007c
:020000040000fa
:0403e8008a0f000078
:020000040000fa
:0403ec008a0f000074
:020000040000fa
:0403f0008a0f000070
:020000040000fa
:0403f4008a0f00006c
:020000040000fa
:0403f8008a0f000068
:020000040000fa
:0403fc008a0f000064
:020000040000fa
:10180000050000008a0f040000000000080f04001b
:10181000000000004a0f040000000000280f040030
:10182000000000006a0f0400000000008a0f04009e
:10183000000000008a0f0400000000008a0f04006e
:10184000000000008a0f0400000000008a0f04005e
:10185000000000008a0f0400000000008a0f04004e
:10186000000000008a0f0400000000008a0f04003e
:10187000000000008a0f0400000000008a0f04002e
:10188000000000008a0f0400000000008a0f04001e
:10189000000000008a0f0400000000008a0f04000e
:1018a000000000008a0f0400000000008a0f0400fe
:1018b000000000008a0f0400000000008a0f0400ee
:1018c000000000008a0f0400000000008a0f0400de
:1018d000000000008a0f0400000000008a0f0400ce
:1018e000000000008a0f0400000000008a0f0400be
:1018f000000000008a0f0400000000008a0f0400ae
:10190000000000008a0f0400000000008a0f04009d
:10191000000000008a0f0400000000008a0f04008d
:10192000000000008a0f0400000000008a0f04007d
:10193000000000008a0f0400000000008a0f04006d
:10194000000000008a0f0400000000008a0f04005d
:10195000000000008a0f0400000000008a0f04004d
:10196000000000008a0f0400000000008a0f04003d
:10197000000000008a0f0400000000008a0f04002d
:10198000000000008a0f0400000000008a0f04001d
:10199000000000008a0f0400000000008a0f04000d
:1019a000000000008a0f0400000000008a0f0400fd
:1019b000000000008a0f0400000000008a0f0400ed
:1019c000000000008a0f0400000000008a0f0400dd
:1019d000000000008a0f0400000000008a0f0400cd
:1019e000000000008a0f0400000000008a0f0400bd
:1019f000000000008a0f0400000000008a0f0400ad
:101a0000000000008a0f0400000000008a0f04009c
:101a1000000000008a0f0400000000008a0f04008c
:101a2000000000008a0f0400000000008a0f04007c
:101a3000000000008a0f0400000000008a0f04006c
:101a4000000000008a0f0400000000008a0f04005c
:101a5000000000008a0f0400000000008a0f04004c
:101a6000000000008a0f0400000000008a0f04003c
:101a7000000000008a0f0400000000008a0f04002c
:101a8000000000008a0f0400000000008a0f04001c
:101a9000000000008a0f0400000000008a0f04000c
:101aa000000000008a0f0400000000008a0f0400fc
:101ab000000000008a0f0400000000008a0f0400ec
:101ac000000000008a0f0400000000008a0f0400dc
:101ad000000000008a0f0400000000008a0f0400cc
:101ae000000000008a0f0400000000008a0f0400bc
:101af000000000008a0f0400000000008a0f0400ac
:101b0000000000008a0f0400000000008a0f04009b
:101b1000000000008a0f0400000000008a0f04008b
:101b2000000000008a0f0400000000008a0f04007b
:101b3000000000008a0f0400000000008a0f04006b
:101b4000000000008a0f0400000000008a0f04005b
:101b5000000000008a0f0400000000008a0f04004b
:101b6000000000008a0f0400000000008a0f04003b
:101b7000000000008a0f0400000000008a0f04002b
:101b8000000000008a0f0400000000008a0f04001b
:101b9000000000008a0f0400000000008a0f04000b
:101ba000000000008a0f0400000000008a0f0400fb
:101bb000000000008a0f0400000000008a0f0400eb
:101bc000000000008a0f0400000000008a0f0400db
:101bd000000000008a0f0400000000008a0f0400cb
:101be000000000008a0f0400000000008a0f0400bb
:041bf00000000000f1
:020000040000fa
:081c0000040e040000000000c6
:020000040000fa
:101c08002f8220000e7f22000e01880000000000b5
:101c1800000020000000e000020032000001200067
:101c28002002880014000700ba0007000000e00046
:101c380003003a00000821000100200002003700dc
:101c48000000200001002000810f70000100320018
:101c580014000700000020000000e000020032002d
:101c68000000020000000000900f020000000000c9
:101c78000040da000000fe004440a90020002000d7
:101c88000000e000030032001000200090018800ee
:101c98004440a800000006008a1f78008b1f7800c7
:101ca80000000600a1028800800478000000eb0014
:101cb8001f003700e284440054a0b4009905ba001c
:101cc800e284440054a0b4009906ba00e2844400b7
:101cd80054a0b4000006eb00476fde00fd07b20019
:101ce800ae018800636ce10003003a00eaff0700d8
:101cf8000000eb000e003700606ce10008003a00bd
:101d0800004deb000a05e800020039003420ec0021
:101d18000af0a0008b05e900f9ff3e000400370037
:101d28006168e100010032000086eb000b0007004b
:101d380019c7ba001905ba000e04e00003003a00fa
:101d48000a00e000dbff3a0000000600fe07b200d0
:101d5800ae0288008a047800f5ff37000cd0a30093
:101d6800e20f4d001c00390089027800354dba0099
:101d78000a05e800020039003420ec000af0a0004f
:101d88008b05e9000f003200254dba000a05e8006e
:101d9800020039003420ec000af0a0008b05e900ad
:101da800080032000c00e0000600320015cdba0031
:101db8000a05e800020039003420ec000af0a0000f
:101dc8008b05e9008984e80054a0b4000b00e0000a
:101dd800e2ff3a00000006009902ba00055d7800ab
:101de8008b05e900f7ff3200c82ade00055d7800a0
:101df8008b05e900f3ff32000c00e000f1ff320030
:101e080019ddba00eeff37003600f800809fbe00eb
:101e1800829fbe00849fbe00869fbe000000fa001d
:101e28008020a9000000eb00a70007000080fa004e
:101e38004f03be004f02be004f01be004f00be0060
:101e48003600f900004006003600f800809fbe000a
:101e5800829fbe00849fbe00869fbe000000fa00dd
:101e68009e0007008040a90010002000960007008f
:101e78000080fa004f03be004f02be004f01be00b3
:101e88004f00be003600f900004006003600f8009a
:101e9800809fbe00829fbe00849fbe00869fbe00ba
:101ea8000000fa008060a9002000200086000700da
:101eb8000080fa004f03be004f02be004f01be0073
:101ec8004f00be003600f900004006003600f8005a
:101ed800809fbe00829fbe00849fbe00869fbe007a
:101ee8000000fa008080a90030002000760007007a
:101ef8000080fa004f03be004f02be004f01be0033
:101f08004f00be003600f900004006000040da002d
:081f18000000fe0000000500be
:020000040000fa
:101f20000400fa007e0007008ca1a8000000eb006e
:101f3000000f78000000eb00100798008ca1a800ab
:101f40000000eb00000f78000b0037000000eb00f2
:101f500010079800030037001e0090000000e80002
:101f6000100798009e009000703e2000808f500067
:101f7000f9ff34001e0fe800703e20009e0078003c
:101f8000808f5000f1ff34008ca1a9000000eb000d
:101f9000000f78000b0037000000eb0010079800de
:101fa000030037001e0090000000e80010079800b2
:101fb0009e009000703e2000808f5000f9ff34009a
:101fc0001e0fe800703e20009e007800808f5000b9
:101fd000f1ff3400d5ff37000000fa0000102300a5
:101fe000100888000621ef006821ef006a21ef0049
:101ff0006e21ef007021ef007221ef007421ef00dd
:102000007621ef007a21ef007c21ef007e21ef00a6
:102010001200200080072000a109200013102000da
:1020200080497800814978008249780012002000b8
:102030006004200071052000031020008049780012
:102040008149780082497800000000000008800083
:10205000610060000000e000fcff3a0000000000aa
:102060000108800000022000008060000000e00005
:10207000fbff32000080fa00000006000000fa00ba
:102080008421ef008e21ef0070012000000c8800f9
:10209000f0fd2e00500c88005620ef005820ef0075
:1020a0005a20ef006e20ef007020ef007220ef004a
:1020b0008621ef009021ef00c0002000400c880036
:1020c000f0242e00900c88000080fa00000006002a
:1020d0000200fa00000f78009e007800014088009e
:1020e000ffff37000000fa00208020008007780002
:1020f000a0812000000188000080fa000000060096
:020000040000fa
:10210000020800002000000080000000000800001d
:102110000200000082000000ffff0000000000003d
:020000040000fa
:102120000000fa00d5ff070003000700aaff070020
:102130000080fa00000006000000fa000080fa00ab
:042140000000060095
:020000040000fa
:020000040001f9
:0457f000ffc30000f3
:020000040000fa
:020000040001f9
:0457f400fff60000bc
:020000040000fa
:020000040001f9
:0457f8005f38000016
:020000040000fa
:020000040001f9
:0457fc003f3d00002d
:00000001FF
